:020000040800F2
:1000000090F70020C1020008C9020008B5A100084D
:10001000CD020008CF020008D10200080000000055
:10002000000000000000000000000000D3020008F3
:10003000D5020008000000004B030008A18201085F
:10004000DB020008DB020008DB020008B5570108EC
:10005000DB020008DB0200081D920008DB0200083A
:10006000559200088D920008C5920008DB02000836
:10007000DB020008DB020008DB020008DB020008EC
:10008000DB020008DB020008DB020008DB020008DC
:10009000999C0108DB020008DB020008719300084C
:1000A000DB020008DB020008DB020008DB020008BC
:1000B0000984010849840108F5840108DB0200086D
:1000C000DB020008DB020008DB020008DB0200089C
:1000D000DB02000875980108DB020008E1980108BE
:1000E000DB020008DB020008119B0108DB020008AC
:1000F000DB020008DB020008DB020008DB0200086C
:10010000DB020008AD64010859860108DB02000823
:10011000DB020008DB020008DD86010869870108B0
:10012000DB020008DB020008DB020008DB0200083B
:1001300000F002F800F0B0F80AA090E8000C824449
:100140008344AAF10107DA4501D100F0A5F8AFF226
:10015000090EBAE80F0013F0010F18BFFB1A43F0A5
:1001600001031847B8150700D81507000A444FF0D7
:10017000000C10F8013B13F0070408BF10F8014B06
:100180001D1108BF10F8015B641E05D010F8016B4B
:10019000641E01F8016BF9D113F0080F1EBF10F8AF
:1001A000014BAD1C0C1B09D16D1E58BF01F801CBD2
:1001B000FAD505E014F8016B01F8016B6D1EF9D555
:1001C0009142D6D37047000000230024002500266A
:1001D000103A28BF78C1FBD8520728BF30C148BFAA
:1001E0000B6070476E2902F0DB83702902F0658096
:1001F000662910F02FA6652910F02CA6672910F0AB
:1002000029A66129AFF3008003681B0A28BF41F0CB
:100210008001692901F0D687642901F0D387752907
:1002200001F0D0876F2902F0E286782902F0318050
:10023000E92902F07D86E42902F07A86F52902F0A8
:100240007786EF2902F0DF86F82902F03080036814
:10025000DB0928BF41F08001632902F0EC85732996
:1002600002F0F185E32902F0FF87F32903F004800F
:10027000002070471FB502F015FB0400002000218C
:100280004FF084FA401C6060002000214FF094FA87
:10029000E0601FBD10B510BD03F0F8F81146FFF780
:1002A000E9FF32F0A5F903F0A1FB03B4FFF7F2FF79
:1002B00003BC1BF05CF8000080F308887047000066
:1002C0000948804709480047FEE7FEE7FEE7FEE7EA
:1002D000FEE7FEE7FEE7FEE7FEE7FEE70448054926
:1002E000034A054B70470000D18201083101000824
:1002F00090EF002090F7002090EF0020EFF31080A7
:1003000072B6704780F310887047204C204D2560EE
:100310004FF0000484F309881E4C4FF0010525704E
:100320001D4C4FF08055256062B6FEE730B41A4C84
:100330004FF08055256030BC704730B4164C4FF0FC
:100340008055256030BC704700BF72B6EFF309805E
:1003500028B1203880E8F00F10490968086000B51E
:100360000F4880475DF804EB0E480F490A78027089
:100370000A480E490A680260106890E8F00F2030C1
:1003800080F309884EF0040E62B6704720ED00E05D
:100390000000FFFFFF03002004ED00E01804002030
:1003A00019450108FC030020FD0300202004002063
:1003B00010B5FF4800681BF08DF9FE4800681BF07F
:1003C00089F9FD4800681BF085F9FC4800681BF0BE
:1003D00081F9FB4800681BF07DF9FA4800681BF0C2
:1003E00079F9F94800681BF075F910BD10B50024C3
:1003F0004FF400701BF072F9ED4908600846006880
:1004000000B901244FF400701BF068F9E949086055
:100410000846006800B901244FF400701BF05EF933
:10042000E54908600846006800B90124A0201BF0D7
:1004300055F9E24908600846006800B901244020E7
:100440001BF04CF9DE4908600846006800B9012439
:1004500040201BF043F9DB4908600846006800B9FA
:1004600001244FF4F8701BF039F9D74908600846A9
:10047000006800B901240CB1FFF79AFF204610BDB7
:100480002DE9F04704460D461646701B00EBD0716F
:1004900005EB610954F8397004EBC901486850F064
:1004A000C5FA804654F8350044F8390004EBC5001D
:1004B000406804EBC9014860A94605F1010A1DE046
:1004C00054F83A00394650F043FB15D854F83A0036
:1004D00044F8390004EBCA00406804EBC9014860E5
:1004E00009F1010954F8390044F83A0004EBC90055
:1004F000406804EBCA0148600AF1010AB245DFDD39
:10050000A9EB0500012805DDA9F1010229462046D5
:10051000FFF7B6FFA6EB0900012805DD324609F119
:1005200001012046FFF7ACFF44F83970404650F017
:10053000E3FA04EBC9014860BDE8F0872DE9F84F04
:1005400004460D4616461F464FF0000828E04FF0BF
:10055000000920E04FF0000BDA4612E00B9A0AFB8C
:10056000029255F822100A9A08FB02A254F82200BF
:1005700050F022FB5946009050F0EEF883460AF105
:10058000010A0A988245E9DB0B9808FB009046F8BF
:1005900020B009F101090B988145DBDB08F1010866
:1005A000B845D4DBBDE8F88F024612B909B900207E
:1005B0007047002A02DD09B90020F9E7002903DDB0
:1005C0008A4201DD0120F3E7002A03DD914201D1D7
:1005D0000220EDE7002A03DD8A4201DA0320E7E783
:1005E0001AB9002901DD0420E2E7002A08DA101E0A
:1005F00001DB034600E043428B4201DA0520D7E7E6
:10060000002A08DA101E01DB034600E043428B4259
:1006100001D10620CCE7002A0ADA101E01DB0346CE
:1006200000E043428B4203DD002901DD0720BFE7E4
:1006300019B9002A01DA0820BAE7002903DA914241
:1006400001DD0920B4E7002A03DA914201D10A2032
:10065000AEE7002A03DA914201DA0B20A8E71AB9C3
:10066000002901DA0C20A3E700290ADA081E01DBC1
:10067000034600E04342934203DD002A01DD0D20E2
:1006800096E7002908DA081E01DB034600E0434232
:10069000934201D10E208BE7002908DA081E01DB06
:1006A000034600E04342934201DA0F2080E7002036
:1006B0007EE730B5034601B10AB9002030BD4129BB
:1006C00001D0412A01D10020F8E7491E521E03EB58
:1006D000C20000EBE100047801F007050120A8400A
:1006E000044201D00120E9E70020E7E72DE9FE4FB1
:1006F00004460D4616461F4600200190781C8200D5
:10070000002132481AF0EEFF781C820000213048A8
:100710001AF0E8FF4FF0000819E04FF0000912E06E
:1007200004EBC80000EBE900017809F007020120A2
:100730009040014205D04FF07E51019850F00CF8E6
:10074000019009F10109B145EADB08F10108A8456A
:10075000E3DB384650F0D0F982460146019850F06C
:100760006FF801900120029049E04FF0000AD04656
:100770003AE04FF0000912E004EBC90000EBE8009A
:10078000017808F0070201209040014205D04FF0A7
:100790007E5150464FF0E0FF824609F10109A9451C
:1007A000EADB029850F0A8F90090019912E00000ED
:1007B000980700209C070020A0070020A407002025
:1007C000A8070020AC070020B007002004EF00209D
:1007D00018EF002050F0F0F98346514650F0B8F978
:1007E00000D804E008F10108701E4045C1DC00BFDC
:1007F000FD48029940F821800298401C0290781C24
:1008000002998142B1DB0120029035E04FF0000AED
:10081000D14626E04FF0000812E004EBC90000EBDF
:10082000E800017808F0070201209040014205D05D
:100830004FF07E5150464FF08FFF824608F101087D
:10084000B045EADB029850F057F90090019950F05A
:10085000B3F98346514650F07BF900D804E009F122
:100860000109681E4845D5DC00BFE049029841F8FF
:1008700020900298401C0290781C02998142C5DBAE
:100880000020029032E0029991FBF7F1D74A52F82A
:100890002120029991FBF7F1491CD44B53F8211008
:1008A000501800EBD0714910D14A1268029B42F8EF
:1008B0002310029991FBF7F207FB1211CA4A52F872
:1008C0002120029991FBF7F307FB1311491CC64B3A
:1008D00053F82110501800EBD0714910C54A126826
:1008E000029B42F823100298401C029007FB07F07D
:1008F00002998842C7DCBDE8FE8F2DE9F34F8FB027
:10090000402440200A901025AA000021B948006820
:100910001AF0E8FEAA000021B54800681AF0E2FECD
:10092000042321460A9A0F98FFF7E0FEE200002117
:10093000B14800681AF0D6FE00200B9060E3AC4886
:1009400001680B9851F820000290AA4801680B98A2
:1009500051F82000019002980830402801DD402025
:1009600001E002980830089001980830402801DD25
:10097000402001E00198083006900298083801D51F
:10098000002001E00298083809900198083801D544
:10099000002001E001980838079009980E9027E39D
:1009A00007980D901CE3DDE90D120F98FFF781FE0B
:1009B0008146DDE90D12491C0F98FFF77AFE0221EE
:1009C00001FB0099DDE90D12891C0F98FFF771FEFC
:1009D00081440E9A921C0D990F98FFF76AFEA9EBBD
:1009E00000090E9A921C0D99491C0F98FFF761FEA1
:1009F000022101FB10990E9A921C0D99891C0F98E7
:100A0000FFF757FEA9EB000007B2DDE90D12891CC4
:100A10000F98FFF74EFE81460E9A521C0D99891CC5
:100A20000F98FFF746FE022101FB00990E9A921CD7
:100A30000D99891C0F98FFF73CFE8144DDE90D12EA
:100A40000F98FFF736FEA9EB00090E9A521C0D997C
:100A50000F98FFF72EFE022101FB10990E9A921CAF
:100A60000D990F98FFF725FEA9EB00000FFA80F80B
:100A7000002F02DBB8F1000F00DA00BF4146384614
:100A8000FFF792FD0390039841100B9801FB0506B8
:100A90000398401C40100B9900FB0510059002992B
:100AA0000E98401A083000EB0010019A0D99891A2F
:100AB00008440830514951F8200004900398102848
:100AC0001CD2DFE800F0081C4A629FB3F2F0EFEEA0
:100AD000EDECEBEAE9E8384650F00EF8824604996E
:100AE00050F06AF881464448006850F8261048469D
:100AF0004FF032FE4049096841F826006CE2A7EB4E
:100B000008004FF0F9FF8246049950F055F88146ED
:100B10003948006850F8261048464FF01DFE364907
:100B2000096841F8260040464FF0E6FF8346344905
:100B300050F042F88246049950F03EF881462E4823
:100B40000268059852F8201048464FF005FE2A49E1
:100B50000968059A41F822003EE240464FF0CCFF7A
:100B60008346274950F028F88246049950F024F82B
:100B700081462148006850F8261048464FF0ECFDA9
:100B80001D49096841F8260026E238464FF0B4FFB7
:100B900083461B4950F010F88246049950F00CF837
:100BA00081461548006850F8261048464FF0D4FD9D
:100BB0001149096841F82600A8EB07004FF09CFF97
:100BC000824604994FF0F8FF81460B480268059869
:100BD00052F8201048464FF0BFFD07490A680599B2
:100BE00042F82100F8E1000004EF002018EF002097
:100BF000AC070020A80700209C070020343D060811
:100C0000F704B53F40464FF077FF824604994FF016
:100C1000D3FF8146FE48006850F8261048464FF042
:100C20009BFDFB49096841F82600D5E107EB080068
:100C30004FF062FF824604994FF0BEFF8146F448B0
:100C4000006850F8261048464FF086FDF0490968C4
:100C500041F82600B7F1000901DB494601E0C9F17E
:100C6000000108464FF048FFEA4900904FF0A4FF0A
:100C7000834604994FF0A0FF8246E5480068059A34
:100C800050F8221050464FF067FDE1490968059A77
:100C900041F82200A0E166E14DE111E1F5E0BFE09D
:100CA0009FE069E04DE018E0FFE740464FF024FF89
:100CB0008346D8494FF080FF824604994FF07CFF6D
:100CC0008146D348006850F8261048464FF044FD4E
:100CD000CF49096841F826007EE140464FF00CFFFD
:100CE0008346CC494FF068FF824604994FF064FF79
:100CF0008146C748006850F8261048464FF02CFD42
:100D0000C349096841F8260017EB080901D4494690
:100D100001E0C9F1000108464FF0EEFE8346049958
:100D20004FF04AFF8246BA480068059A50F82210F0
:100D300050464FF011FDB6490968059A41F8220066
:100D40004AE1B7F1000901DB494601E0C9F10001C0
:100D500008464FF0D1FE834604994FF02DFF82469E
:100D6000AB48006850F8261050464FF0F5FCA849F3
:100D7000096841F826002FE1A8EB07004FF0BCFE00
:100D8000824604994FF018FF8146A148006850F848
:100D9000261048464FF0E0FC9D49096841F82600BE
:100DA000B8F1000901DB494601E0C9F1000108463C
:100DB0004FF0A2FE974900904FF0FEFE8346049943
:100DC0004FF0FAFE824692480068059A50F82210C9
:100DD00050464FF0C1FC8E490A68059942F821003F
:100DE000FAE0B8F1000901DB494601E0C9F1000170
:100DF00008464FF081FE874900904FF0DDFE8346A4
:100E000004994FF0D9FE82468148006850F82610B8
:100E100050464FF0A1FC7E49096841F82600DBE00E
:100E2000B7F1000901DB494601E0C9F100010846BC
:100E30004FF062FE774900904FF0BEFE8346049962
:100E40004FF0BAFE82467248006850F826105046AD
:100E50004FF082FC6E49096841F82600A7EB0800B4
:100E60004FF04AFE824604994FF0A6FE814668483C
:100E70000268059852F8201048464FF06DFC64490E
:100E80000A68059942F82100A6E0B8F1000901DBE3
:100E9000494601E0C9F1000108464FF02DFE8346A6
:100EA00004994FF089FE82465948006850F8261090
:100EB00050464FF051FC5649096841F826008BE036
:100EC00017EB080901D4494601E0C9F100010846C1
:100ED0004FF012FE834604994FF06EFE82464C4856
:100EE000006850F8261050464FF036FC4849096813
:100EF00041F82600B7F1000901DB494601E0C9F1DC
:100F0000000108464FF0F8FD424900904FF054FEB2
:100F1000834604994FF050FE82463D480068059A8A
:100F200050F8221050464FF017FC39490A680599CD
:100F300042F8210050E038464FF0DEFD8346354947
:100F40004FF03AFE824604994FF036FE8146304813
:100F5000006850F8261048464FF0FEFB2C490968FF
:100F600041F8260038E0B8F1000901DB494601E00C
:100F7000C9F1000108464FF0BFFD264900904FF02F
:100F80001BFE834604994FF017FE824620480068F6
:100F900050F8261050464FF0DFFB1D49096841F814
:100FA000260017EB080901D4494601E0C9F1000108
:100FB00008464FF0A1FD834604994FF0FDFD82469F
:100FC0001348006850F8261050464FF0C5FB1049F2
:100FD000096841F8260000BF00BF0D98401C0D9025
:100FE00006990D9888427FF7DEAC0E98401C0E9053
:100FF00008990E9888427FF7D3AC0B98401C0B9051
:101000000B98A8427FF49BAC00200B901FE00000DF
:101010009C070020F704B53F00200C9011E0DDE9AB
:101020000B0101FB0506FF49096851F82600FE493E
:101030003BF004FFFD49096841F826000C98401C6C
:101040000C900C980828EADB0B98401C0B900B982E
:101050001028E1DB11B0BDE8F08F2DE9FF4F8BB018
:1010600004460D461E46199F0020079090E20798FF
:1010700005EB80000088ADF82800079805EB80009C
:101080004088ADF82A000798401C05EB80000088D6
:10109000ADF824000798401C05EB80004088ADF8AF
:1010A0002600BDF92800BDF92410884272D1BDF98F
:1010B0002A00089067E0002E41D04FF0FF383AE058
:1010C0004FF0FF30069031E0089810EB08002AD46A
:1010D000089800EB08011898814224DABDF928002D
:1010E000069940181FD4BDF9281006980844B84244
:1010F00019DABDF92810069808440590089840446C
:1011000004EBC000059900EBE100007801F0070254
:101110000121914008430899414404EBC101059A1B
:1011200001EBE20108700698401C06900698022820
:10113000CAD108F10108B8F1020FC1D116E0BDF91A
:1011400028000590089804EBC001059801EBE00029
:101150000078059901F007020121914008430899A0
:1011600004EBC102059902EBE1010870BDF926000C
:10117000BDF92A10884203DD0898401C089002E05F
:101180000898401E0890BDF926100898814292D117
:10119000FBE1FFE7BDF92A00BDF92610884275D1B1
:1011A000BDF9280008906AE0002E42D04FF0FF38C9
:1011B0003BE04FF0FF30069032E006990898401867
:1011C0002BD40699089808441899884225DABDF965
:1011D0002A0010EB080020D4BDF92A004044B84290
:1011E0001BDA0699089808440590BDF92A00404486
:1011F00004EBC001059801EBE0000078059901F0CF
:101200000702012191400843BDF92A10414404EB33
:10121000C102059902EBE10108700698401C069096
:1012200006980228C9D108F10108B8F1020FC0D10F
:1012300018E008980590BDF92A0004EBC001059854
:1012400001EBE0000178059800F0070201209040D2
:101250000143C8B2BDF92A1004EBC101059A01EBA4
:10126000E2010870BDF92400BDF92810884203DDB1
:101270000898401C089002E00898401E0890BDF9AC
:101280002410089881428FD17FE1FFE7BDF9241037
:10129000BDF92820881A4FF02FFC8246BDF9261090
:1012A000BDF92A20881A4FF027FC834651464FF09B
:1012B000C7FA81464FF024FACDE9020121F000413E
:1012C000CDE900015AA00CC800984EF0CDFE13D213
:1012D000BDF92410BDF92820881A4FF00DFC814675
:1012E000BDF92610BDF92A20881A4FF005FC824668
:1012F00049464FF0A5FA12E0BDF92610BDF92A20A3
:10130000881A4FF0F9FB8146BDF92410BDF9282059
:10131000881A4FF0F1FB824649464FF091FA04904B
:10132000BDF92420BDF92830D01ABDF92620BDF919
:101330002A30D11A01D40B4600E04B42002801DBD1
:10134000024600E0424293426BDA002008907EE0C1
:1013500008984FF0D1FB039004994FF02DFC834681
:101360004FF064FBBDF92A1000EB0109BDF928001C
:10137000089900EB010A002E3CD04FF0FF3835E011
:101380004FF0FF3006902CE019EB080026D409EB53
:1013900008001899884221DA06981AEB00001DD43B
:1013A00006985044B84219DA0AF10100059009EB99
:1013B000080004EBC000059900EBE10001780598F6
:1013C00000F00702012090400143C8B209EB080178
:1013D00004EBC101059A01EBE20108700698401C7C
:1013E000069006980228CFD108F10108B8F1020F43
:1013F000C6D113E0CDF814A004EBC900DDF814A0A9
:1014000000EBEA0001780AF0070201209040014356
:10141000C8B204EBC90101EBEA010870BDF9240070
:101420000AE01EE09C07002085EBD13EA0070020CB
:10143000000000000000F03FBDF92810884203DDE5
:101440000898401C089002E00898401E0890BDF9DA
:101450002400BDF92810401A089988427FF478AF1B
:1014600092E0BDF92420BDF92830D01ABDF926201C
:10147000BDF92A30D11A01D40B4600E04B420028B6
:1014800001DB024600E0424293427DDB00200890EF
:1014900072E0BDF92A10089801EB000908984FF096
:1014A0002BFB039004994FF087FB83464FF0BEFA65
:1014B000BDF9281000EB010A002E3CD04FF0FF3898
:1014C00035E04FF0FF3006902CE019EB080026D4F1
:1014D00009EB08011898814221DA06981AEB0000FE
:1014E0001DD406985044B84219DA06985044059025
:1014F00009EB080004EBC000059900EBE10001785E
:10150000059800F00702012090400143C8B209EBA2
:10151000080104EBC101059A01EBE201087006988D
:10152000401C069006980228CFD108F10108B8F1B6
:10153000020FC6D113E0CDF814A004EBC900DDF80A
:1015400014A000EBEA0001780AF0070201209040A5
:101550000143C8B204EBC90101EBEA010870BDF90F
:101560002600BDF92A10884203DD0898401C089027
:1015700002E00898401E0890BDF92600BDF92A1027
:10158000411A0898814284D100BF0798401C0790F7
:101590000D98411E079881427FF469AD0FB0BDE8F8
:1015A000F08F2DE9F04F099C15464FF0FF360F469E
:1015B000B4464FF0000935E000EB890ABAF902A001
:1015C000BA4504DA00EB890ABAF902A000E0BA468B
:1015D000574600EB890ABAF900A0AA4504DA00EBE5
:1015E000890ABAF900A000E0AA46554600EB890A2C
:1015F000BAF902A0E24504DD00EB890ABAF902A0BB
:1016000000E0E246D44600EB890ABAF900A0B245F0
:1016100004DD00EB890ABAF900A000E0B2465646A4
:1016200009F10109DDF828A0D145C5DBACEB070ABB
:101630000AF1010A93FBFAFA0AF1010EA6EB050A78
:101640000AF1010A94FBFAFA0AF101084FF00009C5
:101650002BE000EB890ABAF902A0AAEB070A0AFB01
:1016600003FAACEB070B0BF1010B9AFBFBFAF2440C
:101670000FFA8AFA00EB890BABF802A000EB890A9B
:10168000BAF900A0AAEB050A0AFB04FAA6EB050BBF
:101690000BF1010B9AFBFBFAC2440FFA8AFA00EB3A
:1016A000890BABF800A009F10109DDF828A0D145AC
:1016B000CFDBBDE8F08F2DE9FF4784B014461D460F
:1016C000BDF91000BDF91410884223D1002619E09D
:1016D000BDF81000296804EB81010880BDF81200F4
:1016E000304400B2296804EB810148802868401C1E
:1016F0002860BDF91600BDF91210884201DD761C84
:1017000000E0761EBDF91600BDF91210401AB04275
:10171000DED1E9E0BDF91200BDF91610884223D1EF
:10172000002619E0BDF81200296804EB8101488009
:10173000BDF81000304400B2296804EB8101088034
:101740002868401C2860BDF91400BDF910108842BB
:1017500001DD761C00E0761EBDF91400BDF9101005
:10176000401AB042DED1BFE0BDF91410BDF910201F
:10177000881A4FF0C1F98146BDF91610BDF9122043
:10178000881A4FF0B9F9824649464FF059F8804619
:101790004EF0B6FFCDE9020121F00041CDE9000194
:1017A000AFF274300CC800984EF05EFC13D2BDF955
:1017B0001410BDF91020881A4FF09EF98046BDF92B
:1017C0001610BDF91220881A4FF096F9814641464D
:1017D0004FF036F812E0BDF91610BDF91220881A44
:1017E0004FF08AF98046BDF91410BDF91020881A0F
:1017F0004FF082F9814641464FF022F80746BDF985
:101800001420BDF91030D01ABDF91620BDF91230E0
:10181000D11A01D40B4600E04B42002801DB0246FE
:1018200000E0424293422FDC002625E0BDF8100084
:10183000304400B2296804EB8101088030464FF043
:101840005BF9814639464FF0B7F980464FF0EEF824
:10185000BDF81210084400B2296804EB81014880E9
:101860002868401C2860BDF91400BDF9101088429A
:1018700001DD761C00E0761EBDF91400BDF91010E4
:10188000401AB042D2D12EE0002625E0BDF8120069
:10189000304400B2296804EB8101488030464FF0A3
:1018A0002BF9814639464FF087F980464FF0BEF854
:1018B000BDF81010084400B2296804EB81010880CB
:1018C0002868401C2860BDF91600BDF91210884236
:1018D00001DD761C00E0761EBDF91600BDF9121080
:1018E000401AB042D2D100BF08B0BDE8F0872DE960
:1018F000F84F04460D461646701E00EBD0714FEAB5
:101900006109A5EB09000090CA46A80019F0E6FE9F
:101910008346AA002146584600F08DFEB54205DBFD
:1019200006EBD6714910B6EB410101D1BDE8F88F45
:101930004F463CE0002004EB8701088004EB870160
:101940004880CAF100081BE004EB8700008807EB21
:1019500008010BEB81010988084400B204EB870100
:10196000088004EB8700408807EB08010BEB81013E
:101970004988084400B204EB8701488008F1010857
:10198000D045E1DD04EB8700B0F9000090FBF6F0F4
:1019900000B204EB8701088004EB8700B0F9020075
:1019A00090FBF6F000B204EB870148807F1C0098A2
:1019B0008742BFDB584619F08DFEB7E72DE9FF4F90
:1019C00091B004460D461E9E0327802010900F9074
:1019D00040200E900D9000200B900A9081468020B0
:1019E00009900520049029462046049AFFF77FFFBE
:1019F0004FF0010A29E004EB8A01B1F90010AAF1C5
:101A0000010204EB8202B2F90020881A01D40146D7
:101A100000E04142089104EB8A01B1F90210AAF1F9
:101A2000010204EB8202B2F90220881A01D40146B5
:101A300000E041420791DDE90710884201DB089888
:101A400000E0079881440AF1010AAA45D3DB4FEA76
:101A5000890019F043FE80464FEA89020021404682
:101A600019F040FE4FF0000A15E00AF1010004EB06
:101A70008001042203A800F0DEFD04EB8A010422A9
:101A800002A800F0D8FD0AAB4246DDE90201FFF7EB
:101A900012FE0AF1010A681E5045E6D14FEA89009C
:101AA000B0FBF7F0039019F019FE0C904FEA890093
:101AB000B0FBF7F00246002103900C9819F012FEDB
:101AC0004FF0000A13E008EB8A000088DDE90B21E3
:101AD00001EB8201088008EB8A004088DDE90B21D8
:101AE00001EB820148800B98401C0B90BA44CA4518
:101AF000E9DB404619F0EEFD0B9B0E9ACDE9002381
:101B0000DDE90C03DDE90F12FFF74BFD4FF4007226
:101B10000021FD48006819F0E5FDDDE90D23CDE960
:101B200000230123F848DDE90B210068FFF795FA4F
:101B30000C9819F0CFFDF44809990068FEF7DDFE16
:101B40002823099ACDE900230123F048F0490268CF
:101B5000F0480068FEF7F2FC1498012806D002282D
:101B600009D003280CD0042814D10EE000200690E0
:101B70000A20059012E00A200690242005900DE02E
:101B8000242006903E20059008E0002006903E208C
:101B9000059003E0002015B0BDE8F08F00BF4FF4C2
:101BA000F8720021DC48006819F09CFD4FF0000A33
:101BB00040E04FF0000B30E0069A524402EB820204
:101BC000D64B03EB421252F82B10D04A126852F84F
:101BD0002B004FF0C7F80290069A524402EB8202A3
:101BE000CE4B03EB421252F82B10C84A126852F83F
:101BF0002B004FF0B7F8019002994EF0DDFF0390F3
:101C0000C548006850F83A1003984EF0A5FDC24947
:101C1000096841F83A000BF1010BBBF1280FCBD159
:101C200050464EF069FFBC49096801EBCA014860A3
:101C30000AF1010ADDE90501401A5045B9D1DDE993
:101C40000501401A421E0021B3480068FEF718FC47
:101C50004FF0000A0EE0B049096801EBCA0148687C
:101C60004EF0E4FE06990844AD49085C06F80A0007
:101C70000AF1010A13988245EDDB002006F80A00FC
:101C8000307888E72DE9F84F04460D4616461F4682
:101C9000DDF828804FF000094FF6FF7AD346012D7A
:101CA00002DCC846BDE8F88F4FF000091CE004EBE9
:101CB0008900B0F9001009F1010004EB8000B0F9CF
:101CC000000081420BD104EB8900B0F9021009F148
:101CD000010004EB8000B0F90200814200D006E070
:101CE00009F101001FFA80F9681E4845DFDC00BFDA
:101CF000681E484500D1D5E74FF0000919E004EB14
:101D00008900B0F90000504504DA04EB890000882E
:101D10001FFA80FA04EB8900B0F90200584504DA92
:101D200004EB890040881FFA80FB09F101001FFACB
:101D300080F9A945E3DB4FF0000915E004EB8900C9
:101D40000088A0EB0A0000B204EB8901088004EBD4
:101D500089004088A0EB0B0000B204EB89014880A9
:101D600009F101001FFA80F9A945E7DB3B4632463D
:101D700029462046CDF80080FFF720FE92E72DE9A6
:101D8000F84F4FF00009C3F800900124EBE0A4F1F4
:101D9000010900EB8909B9F9005000EB8409B9F990
:101DA00000A0CDF800A0A4F1010900EB8909B9F960
:101DB000026000EB8409B9F90270DDF800A0BAEB0B
:101DC000050901D4CA4601E0C9F1000AD446B7EBBF
:101DD000060901D4CA4601E0C9F1000AD646F44515
:101DE00059DD4FF0000853E0DDF80090A9450ADD09
:101DF00005EB08090FFA89F9D3F800A002EB8A0A6B
:101E0000AAF8009009E0A5EB08090FFA89F9D3F8C0
:101E100000A002EB8A0AAAF80090B7421ADDD3F8B4
:101E200000A002EB8A0ABAF900A0BAEB050901D4B6
:101E3000CA4601E0C9F1000A0AFB0EFA9AFBFCFA55
:101E4000B2440FFA8AFAD3F800B002EB8B0BABF86E
:101E500002A01AE0D3F800A002EB8A0ABAF900A0A7
:101E6000BAEB050901D4CA4601E0C9F1000A0AFB30
:101E70000EFA9AFBFCFAA6EB0A0A0FFA8AFAD3F8D2
:101E800000B002EB8B0BABF802A01B1D08F10108A0
:101E9000E045A9DB66E04FF0000861E0B7420ADDEB
:101EA00006EB08090FFA89F9D3F800A002EB8A0AB9
:101EB000AAF8029009E0A6EB08090FFA89F9D3F80D
:101EC00000A002EB8A0AAAF80290DDF80090A9456A
:101ED00028DDD3F800A002EB8A0ABAF902A0BAEB17
:101EE000060901D4CA4601E0C9F1000A0AFB0CFA4E
:101EF0009AFBFEFAAA440FFA8AFAD3F800B002EB72
:101F00008B0BABF800A028E098070020A407002066
:101F1000F8460608A0070020B0070020F89606083B
:101F2000B8BD0608D3F800A002EB8A0ABAF902A0ED
:101F3000BAEB060901D4CA4601E0C9F1000A0AFB5E
:101F40000CFA9AFBFEFAA5EB0A0A0FFA8AFAD3F802
:101F500000B002EB8B0BABF800A01B1D08F10108D1
:101F6000F0459BDB641C8C42FFF611AFBDE8F88F97
:101F70007047000010B500F095FC001D10BD00BFBB
:101F80000DD8040053EA020C00F069802DE9F04BF3
:101F90004FF00006002B1FBFB3FA83F503FA05F4D8
:101FA00024FA05F65E4012BF1643B2FA82F502FA31
:101FB00005F4C5F120051EBF22FA05FC44EA0C0415
:101FC000203556EA044C4FEA144418BF641C4FF005
:101FD00000084FF00009904271EB030C39D300293F
:101FE00019BFB1FA81F701FA07F6B0FA80F700FAE3
:101FF00007F6C7F120071EBF20FA07FC46EA0C06C9
:102000002037B6FBF4FCA7EB0507103F07F01F0BCA
:10201000CBF120060CFA0BFB2CFA06F644BFB346B4
:102020000026202FA4BF5E464FF0000B5BEA060C93
:1020300008BF4FF0010B19EB0B09ABFB027C48EB1F
:102040000608C01B06FB02CC0BFB03CC71EB0C019A
:10205000C1E70B46024641464846BDE8F08B13B542
:102060004FF000004FF00001AFF30080BDE81C40CE
:10207000704710B54C1084EA530404D54042C1F1B6
:10208000000138BF491E1B4204D55242C3F1000370
:1020900038BF5B1EFFF776FF14F0804F04D040423C
:1020A000C1F1000138BF491E14F0004F04D0524264
:1020B000C3F1000338BF5B1E10BD00001CB50C4609
:1020C000064B7B4469460090204600F092FE044691
:1020D0000020694600F0A0FE20461CBD530D000004
:1020E0000FB4044910B503AA029800F0B1FE10BC69
:1020F0005DF814FB080000200FB41CB5084B06AABD
:102100007B4469460090059800F073FE0446002069
:10211000694600F081FE20461CBC5DF814FB0000FF
:10212000150D000070B5044685690068C10601D52B
:10213000302600E02026C00707D070BDD4E9012179
:1021400030469047206A401C20626D1EF6D570BD57
:1021500070B5044685690078C00707D170BDD4E921
:10216000012120209047206A401C20626D1EF6D578
:1021700070BD70B50C460546012A05D0287880064A
:1021800000D5EA69002302E0012305E05B1C9342CD
:1021900002D2E05C0028F9D1A869E618C01AA8614B
:1021A000286A184428622846FFF7BCFF04E0D5E9F6
:1021B000012114F8010B9047B442F8D32846FFF7E9
:1021C000C7FF70BD2DE9F04106460024106875294F
:1021D000314616A510D000F078FB002802DA404204
:1021E00013A507E031688A0701D512A502E0490767
:1021F00004D511A5012401E000F070FB00210A22A2
:1022000006F1240709E0B0FBF2FCB0FBF2F302FB9D
:102210001C00303078541846491C0028F3D123465E
:102220002A463046BDE8F04100F061BB00000000E6
:102230002D0000002B00000020000000F0B40D462F
:102240000188090502D5214C7C4402E01F4C7C44E6
:102250000E34002100F1240608E002F00F071209F5
:10226000E75D42EA03721B097754491C52EA0307EF
:10227000F3D102780023120704D5702D06D009B1DE
:10228000022311342246F0BC00F031BB012310348C
:10229000F8E770B504460D462146106800F01EFBB5
:1022A000024629462046BDE870400023C6E7D21DFD
:1022B00022F00703D3E90023C0E70368126843F064
:1022C000200303600823C3610023B7E7AA9B06002D
:1022D0002DE9F05F894604464FF0000ADFF874B13B
:1022E000FB44C0F820A02046E1688847002874D04D
:1022F000252806D0D4E901219047206A401C20629D
:10230000F1E700265F462046E16888472028054619
:1023100007DB312D05D2781910F8200C08B10643DF
:10232000F1E7B00701D526F00406C4F81CA0002789
:10233000C4F818A02A2D09D0284619F011F838B38E
:1023400004EB8708303DC8F8185019E059F8041B11
:10235000204604EB87029161E1688847012F05461A
:1023600018D1E069002820DA26F020061DE0D8F810
:10237000180000EB800005EB40003038C8F818006A
:102380002046E1688847054618F0EAFF0028EED1AC
:10239000012F0AD02E2D08D12046E16888477F1CE6
:1023A0000546022F46F02006C4DBA069002803DAA8
:1023B000404246F00106A061F00701D026F0100669
:1023C0006C2D0BD0682D09D04C2D39D06A2D35D00D
:1023D000742D35D07A2D33D016E038E0E1682F46E1
:1023E00020468847B842054609D16C2F26D04FF4C5
:1023F0008060E168064320468847054604E06C2F6C
:102400001AD04FF4807006430DB3A5F1410019288E
:1024100002D8203546F400664A4629462046266002
:102420004E46FDF7DFFE80B101280BD0F61D26F0E9
:10243000070000F1080956E74020E4E78020D8E7CC
:102440000020D6E706F104094DE7284652E7206A46
:10245000BDE8F09F3A9B060070B5064600F026FAEC
:102460000468054630460A22002100F029FE2C604F
:1024700070BD401ECAB210F8011F8A4202D0002966
:10248000F9D10020704730B505460B462A4613F8AF
:10249000014B12F8010B08B1A042F8D01CB1002882
:1024A00002D06D1CF1E7284630BD40EA010310B5AB
:1024B0009B070FD1042A0DD310C808C9121F9C42D4
:1024C000F8D020BA19BA884201D9012010BD4FF0C6
:1024D000FF3010BD1AB1D30703D0521C07E0002013
:1024E00010BD10F8013B11F8014B1B1B07D110F870
:1024F000013B11F8014B1B1B01D1921EF1D1184673
:1025000010BD40EA0103024630B59B0710D14FF0E1
:10251000013400E008C208C91D1B9D4315EAC41F11
:10252000F8D013F0FF0102F8011B0DD01B0AF8E7E9
:1025300011F8013B002B02F8013B05D011F8013BDB
:10254000002B02F8013BF3D130BD10B5431C02E073
:1025500010F8011B71B18107FAD14FF0013202C8A6
:102560008C1A8C4314EAC211F9D0C01A0A0603D09F
:10257000C01E10BDC01A10BD0A0401D0801E10BDBF
:102580000902FCD0401E10BD40EA010370B59B0754
:102590002ED14FF00136042A2AD308C810C99D1B3A
:1025A0009D43121F15EAC61517D0D8B2E1B2401AE2
:1025B00050EA056110D198B2A1B2401A50EA054123
:1025C0000AD123F07F4024F07F41401A50EA0521D0
:1025D00002D1180EA0EB146070BDA342DBD018BA74
:1025E00021BA884201D9012070BD4FF0FF3070BD83
:1025F0000AB9002070BD10F8013B11F8014B63B11E
:10260000A3420AD1521E08D010F8013B11F8014B29
:102610001BB1A34201D1521EEDD1181B70BD421E49
:1026200012F8013F002BFBD111F8013B002B02F8FF
:10263000013BF9D17047032A40F2308010F0030CBF
:1026400000F0158011F8013BBCF1020F624498BF05
:1026500011F801CB00F8013B38BF11F8013BA2F1A2
:10266000040298BF00F801CB38BF00F8013B11F01D
:10267000030300F02580083AC0F0088051F8043BBD
:10268000083A51F804CBA0E80810F5E7121D5CBF2A
:1026900051F8043B40F8043BAFF30080D20724BF5D
:1026A00011F8013B11F801CB48BF11F8012B24BFF1
:1026B00000F8013B00F801CB48BF00F8012B704740
:1026C00010B5203AC0F00B80B1E81850203AA0E8CD
:1026D0001850B1E81850A0E81850BFF4F5AF5FEA01
:1026E000027C24BFB1E81850A0E8185044BF18C9B4
:1026F00018C0BDE810405FEA827C24BF51F8043B5B
:1027000040F8043B08BF7047D20728BF31F8023BAE
:1027100048BF11F8012B28BF20F8023B48BF00F842
:10272000012B704702F0FF0343EA032242EA024210
:1027300000F002B84FF000020429C0F0128010F03F
:10274000030C00F01B80CCF1040CBCF1020F18BF8D
:1027500000F8012BA8BF20F8022BA1EB0C0100F020
:102760000DB85FEAC17C24BF00F8012B00F8012BF3
:1027700048BF00F8012B70474FF0000200B5134628
:1027800094469646203922BFA0E80C50A0E80C5091
:10279000B1F12001BFF4F7AF090728BFA0E80C5042
:1027A00048BF0CC05DF804EB890028BF40F8042B3B
:1027B00008BF704748BF20F8022B11F0804F18BFA8
:1027C00000F8012B704710B5044610F0030F08BF46
:1027D00011F0030F40F015804FF0013E121FC0F2C0
:1027E0000E8051F8043BA3EB0E0C2CEA030C1CEA00
:1027F000CE1C08BF40F8043BF0D0A1F1040102F167
:102800000402521E08DB11F8013B002B00F8013BCB
:10281000F7D11146FFF78EFF204610BD4FF0013C67
:1028200050F8042B51F8043B9A4221D1A2EB0C033F
:10283000934313EACC1317D150F8042B51F8043BFF
:102840009A4215D1A2EB0C03934313EACC130BD19C
:1028500050F8042B51F8043B9A4209D1A2EB0C0327
:10286000934313EACC13DBD04FF00000704700BF56
:10287000D01A01BAB1FA81F101F0180122FA01F07F
:10288000CB40C1F12001DBB2C0B2C01A2CFA01F377
:10289000D11A914311EAC311E6D1704770477047CE
:1028A00070477047004870474CEF00200048704761
:1028B0002CEF002010B5FFF7F9FF006810BD10B530
:1028C0000446FFF7F3FF046010BD09684A0501D50F
:1028D00040B27047C905FCD500B2704709684A0587
:1028E00001D5C0B27047C905FCD580B270472DE94B
:1028F000F0470D4699469246044600F124080168C7
:10290000880604D5E06921F01001216000E0012073
:10291000A84201DD471B00E00027A1697A1902EBFC
:102920000900081AA0612078C00602D42046FFF7EB
:10293000F9FB002608E0D4E901211AF806009047C7
:10294000206A401C761C20624E45F4DB2078C006CD
:102950000AD52046FFF7E6FB06E0D4E90121302046
:102960009047206A401C2062381EA7F10107F4DC62
:1029700007E0D4E9012118F805009047206A401CBF
:102980002062281EA5F10105F3DC2046FFF7E0FBDD
:102990002078000602D50220BDE8F0870120FBE781
:1029A00011680268006A530501D508700AE0D30572
:1029B00001D5088006E0130603D5C217C1E900025D
:1029C00000E008600120704770472DE9FF4F0C467A
:1029D0001E464FF0FF378BB0D2E90001DDF8608072
:1029E0000A908A46C1F30A5505B93D4600210846BA
:1029F0004FF00000BAF1000F00F4400005DA00EBE0
:102A000080004FF4400101EA50004FEA9059B9F1BB
:102A1000010F00DDB9460A9850EA4A000ED044F68C
:102A20001050A5F2FF3545432F14B8F1000F1ED00A
:102A30007542291E1EDDC9F100021CE0B8F1010F2C
:102A40004FF0000001D0302103E0F24305E02154B3
:102A5000401CB042FBDB30460022002121540B9980
:102A6000C1F80880C1E900200FB0BDE8F08FBD1BA0
:102A70006D1CDEE74A4600DA694206A800F070FCE9
:102A800006AB93E8070003AB83E8070050460A99BA
:102A900001F0F3F98DE80700A0F500501F38009011
:102AA0000398002D0ADD42F21F014A460844002324
:102AB00003A90390684601F09FFC09E0A0F50050CF
:102AC0004A461F38002303A90390684601F0BEFC64
:102AD0008DE807000004000C03D04FF0FF304108E0
:102AE00000E01046B8F1000F03D000220092154616
:102AF0001EE0751E05D400F01FFB303262556D1EBE
:102B0000F9D5B3460122084302D000227F1C04E01D
:102B10002078302801D100227F1E002A099784D016
:102B20001DE0112D07DA00F007FB303262556D1CF5
:102B300050EA0102F5D1084302D00098C8B10EE076
:102B40000021681E05E0235C625C63542254401E31
:102B5000491C8142F7DBAB46A81B401E09900020B0
:102B600004F80B000B98099AC0F80880C0E9002B04
:102B70007AE711264FF0000857E72DE9F04F884615
:102B80000446D21D22F0070191B0D1E90001CDE940
:102B90000A0117F089FE02460B98C00F01D02D20C4
:102BA00007E02068810701D52B2002E0202101EAFF
:102BB000C000032A099001D0072A05DB03464146DD
:102BC000204600F007FB0BE12078800601D5E06984
:102BD00000E00620B8F1650F814606D0B8F1660F17
:102BE00018D0B8F1670F70D131E00020B9F1110FA2
:102BF000009001DB112301E009F101030AAA01A9F8
:102C00000CA8FFF7E2FEDDE90C70002609F10105D2
:102C1000834647E001204B4600904FF000470AAA48
:102C200001A90CA8FFF7D1FEDDE90DB00C995D46B6
:102C3000002610B909F101000D18B9EB050003D405
:102C4000C0F1FF3609F10105A5EB09002BE0B9F150
:102C5000010F01DA4FF001090020B9F1110F0090C6
:102C6000484601DD112300E003460AAA01A90CA889
:102C7000FFF7ABFEDDE90C704D4600268346207859
:102C800000070AD4AB4500DA5D4601A8012D04DD3A
:102C9000411911F8011C302907D04F4502DA17F10C
:102CA000040F04DA012082460FE06D1EEEE7002FCC
:102CB00002DCED1B3E4403E0781CA84200DD7D1CD5
:102CC000B81B00F1010A4FF000472078000703D439
:102CD000AA4501DB4FF0FF3A0021B7F1004F0DF19B
:102CE00043088DF8431024D002202B23002F01DA53
:102CF0007F422D230A21021EA0F1010000DC5FB1FA
:102D000097FBF1FC97FBF1F201FB1C7C17460CF1E1
:102D1000300C08F801CDEEE7A8F10100037021881E
:102D2000090501D5452100E06521A0F1010800F861
:102D3000011C09980FA9A1EB0807FF1D00B1012094
:102D4000411901EBEA70A1693844081A401EA061DC
:102D50002078C00602D42046FFF7E4F9099828B18C
:102D6000D4E901219047206A401C20622078C006E7
:102D700022D52046FFF7D6F91EE0002E04DBB3452E
:102D800002DD01A8805D00E03020D4E901219047F8
:102D9000206A401C2062761CAAF101005FEA000A4A
:102DA0000AD1FFF77FFDC0680168405CD4E90121CA
:102DB0009047206A401C2062281EA5F10105DCDC3A
:102DC00007E0D4E9012118F8010B9047206A401C64
:102DD0002062381EA7F10107F3DC2046FFF7B8F99F
:102DE000032011B041E6000001694A1C0261087825
:102DF000704700B58FB0CDE901310021059105493B
:102E00007944CDE9031011466846FFF761FA0FB027
:102E100000BD0000E5FFFFFF0A6802F8010B0A6031
:102E2000704710B5436913B1AFF3008001E0FFF7BD
:102E3000A0F9012010BD127800F124010A700022CF
:102E40004A700122EDE711684FF0FF32E9E7000018
:102E5000074B70B50D467B44FFF7CBFF0446284671
:102E600000F0F0FA10B14FF0FF3070BD204670BD99
:102E7000238B02002DE9FF5F15468A460446DFF8E2
:102E8000AC80F8440027D8E900103E46CDE9001098
:102E900010E03AF816106A4602A800F0D7FA411C72
:102EA00007D02178890603D5E269391891420DD8F7
:102EB0000744761C2078800602D5E069B84205DD1B
:102EC000AE42E6DB3AF816000028E2D1A069C01B4A
:102ED000A0612046FFF726F9D8E90010CDE90010DF
:102EE000002017E03AF818106A4602A800F0AEFA7F
:102EF000B0F1FF3F81460BD000250DF1080B05E036
:102F0000D4E901211BF8050090476D1C4D45F7D30E
:102F100008F10100B0428046E4DB206A38442062B8
:102F20002046FFF715F9BDE8FF9F0000FA91060063
:102F30002DE9F0418046D21D22F007020025D2E99A
:102F40000002F52915A614D0011E72F1000106DA5F
:102F50000023D0EB030063EB020211A608E0D8F8CF
:102F600000108B0701D50FA602E0490701D50EA678
:102F700001251146002408F1240704E000F0DCF8E4
:102F800030323A55641C50EA0102F7D12B463246E2
:102F900021464046BDE8F041FFF7A9BC0000000013
:102FA0002D0000002B0000002000000030B40021A4
:102FB00000F1240408E002F00705D208303542EAA7
:102FC0004372DB086554491C52EA0305F3D10468D7
:102FD000002310A2250707D5A40600D421B1C46997
:102FE00001230DA2641EC46130BCFFF780BC10B584
:102FF000044621461068FFF771FC02462046BDE8F2
:1030000010400023D2E7D21D22F00701D1E90023AE
:10301000CCE7000000000000300000000FB40023E7
:1030200000B589B00CA900910B99CB60214B7B4472
:103030000693214B7B44079304236FF00042CDE9B4
:1030400001321E4A7A446B460892024600204DF037
:1030500089FF09B05DF814FB70B506464FF0FF30EC
:1030600015460C46324686B00091CDE9010169460D
:103070000020049004A8FFF7D1FF0246049821180D
:1030800025B108B1084600E02046286004980028D1
:103090000DD0002A02DD0098884208D03246081B75
:1030A00069460094CDE9010404A8FFF7B7FF06B014
:1030B00070BD00004F020000670200007B010000AD
:1030C0002DE9F04791460F4680460446002614F845
:1030D000015B2DB1FEF74EFF0068405DC007F6D1E1
:1030E0002B2D02D02D2D18D0641E4A46394620467D
:1030F00000F0E6F827B13968A14201D1C7F8008095
:103100004FF0020471050BD54042002803DDFFF7A4
:10311000CDFB0460A007BDE8F08746F48066E4E7D5
:103120000028F8DAFFF7C2FB04606FF00040F2E716
:10313000004870472CEF002030B5B0F10A024FEA8A
:10314000900E71F100034EEA817EB0EB0E0061EB50
:1031500091014FEA101E4EEA017E10EB0E0041EB8A
:1031600011114FEA102E4EEA016E10EB0E0041EBEA
:1031700011214FEA104E4EEA014E10EB0E0041EBCA
:103180001141401841F100014FEAD00040EA41707E
:103190004FEAD10110EB80054FEA810444EA9074B4
:1031A00044EB01046D1944EB0404521BA3414FF09E
:1031B000000348BF0A3200D530BD401C41F1000178
:1031C00030BD10B50446FEF7D5FE0068005D00F086
:1031D000010010BD2DE9F0411F4604460326016899
:1031E000072A01F4006004DB08B116A505E016A566
:1031F00003E008B115A500E015A521F0100020603E
:10320000A069C01EA0610FB1401EA0612046FEF75C
:1032100089FF4FB1D4E9012138469047206A401C0C
:103220002062C01C206206E0206AFAE7D4E901218E
:1032300015F8010B9047761EF8D22046FEF788FF5E
:10324000BDE8F0814E414E006E616E00494E460071
:10325000696E660010B5436913B1AFF3008001E0F9
:10326000FFF708FE012010BD128800F124018284BE
:103270000022C2840122EDE711684FF0FF32E9E736
:10328000426842B1016811F8013B23B1521EC0E906
:103290000012184670470121C160881E70474268BD
:1032A0005AB1C368016843B983688B4205D0491E8F
:1032B000521CC0E90012002070474FF0FF307047E9
:1032C0002DE9F05F824615468B4600270AF101047E
:1032D000B9460078302801D09DB113E014F8010BF5
:1032E0000127782803D0582801D045B10AE00DB154
:1032F000102D07D1002714F8010B102502E0082536
:1033000000E00A250026B0460EE005FB080005FB9C
:1033100006F101271FFA80F801EB1046B6F5803F51
:1033200000D3B94614F8010B294600F0D4F8002860
:10333000EBDABBF1000F05D00FB1641E00E054467C
:10334000CBF80040B9F1000F06D0FFF7AFFA022129
:103350000160C81EBDE8F09F48EA0640FAE7000099
:103360002DE9F047814616468AB0354878440DC8A5
:103370008DE80D0032487844801C03AC0DC884E809
:103380000D0041F69B300844372190FBF1F290FB91
:10339000F1F5A5F1800501FB12041B3C02D5644246
:1033A000012000E00020DFF898A080460027FA44C2
:1033B000AAF1BE0A0EE0E0070AD03246684607EBE3
:1033C000470101230AEB810101F040F88DE8070075
:1033D00064107F1C002CEED1194F7F44AE3F19E0E2
:1033E000E80715D007EB04100DF1180A90E80E005D
:1033F0008AE80E00C068F04201D198190890324660
:10340000012306A903A801F021F803AB83E8070014
:103410006D10641C002DE3D14FF001033246694664
:10342000B8F1000F03A802D000F0E6FF01E001F0C0
:103430000DF8C9E90001C9F808200AB0BDE8F08715
:10344000B48F0600007B00F08000704770B5164610
:103450000C460546FEF78EFD036893F8010101282E
:1034600006D0FF2C0FD8185D68B101202C7070BDFC
:10347000D3F807013246214603F2071303442846D6
:10348000BDE8704018474FF0FF3070BD7546FFF73C
:103490004FFEAE4605006946534620F007008546BC
:1034A00018B020B5FCF71AFFBDE820404FF0000629
:1034B0004FF000074FF000084FF0000B21F007011C
:1034C000AC46ACE8C009ACE8C009ACE8C009ACE85F
:1034D000C0098D4670473A2800D2303820F02002CB
:1034E000412A01D3A2F13700884201D34FF0FF30C7
:1034F000704700002DE9FF4F06468BB00878FF2883
:1035000006D0491C2D2805D000244FF0000908E002
:1035100000200CE00124F8E709EB8903491C00EBCB
:1035200043090878FF28F7D114B1C9F1000081469A
:10353000107800252C46AA4629462D2801D02B2894
:1035400004D1521C2D2813D0002082468B461078BF
:10355000FF280FD04FF0000C0A21521CA5FB017868
:1035600004FB018105FB0C11C5194BEB0104EEE7CF
:103570000120EAE7002108464FF00000BAF1000FF1
:1035800002D000EB80004008C0F38157012F01DD1D
:103590004FF0FF370E9955EA040009EB01080BD0F4
:1035A0004FF0020918F5FA7F16DA4FEACA70002FB9
:1035B000706008DD012007E04FEACA70C6E900B07C
:1035C0000FB0BDE8F08F00203060FFF76FF9C0F852
:1035D00000901821084616E0B8F5FA7F18DD002F94
:1035E00002DAF748784401E0F6487844D0E9001060
:1035F000C6E9001040EACA707060FFF757F9C0F8DA
:103600000090142108460FB0BDE8F04F4DF01FBCEC
:10361000002108464FF00000B8F10001099002DADD
:10362000C7F1000200E03A4601DAC8F1000106A83D
:10363000FFF796FE06AB93E8070003AB83E80700AD
:1036400044F23E005BEA04010090584604D144F283
:103650001E012C465D460091210C0904014306D150
:103660000099240444EA15442D041039009104F013
:103670007F41014306D10099240244EA15642D02DA
:103680000839009104F07041014306D100992401EA
:1036900044EA15742D01091F009104F040410143D3
:1036A00006D10099A40044EA9574AD00891E0091EA
:1036B00004F00041084304D100986D196441401E94
:1036C00000904FF001033A466846B8F1000FCDE98B
:1036D000014503A902DD00F0CEFE01E000F0A1FEED
:1036E000BAF1000F04460D4601D084F000440021D9
:1036F00008464FF00000099940F2FF77484010F06B
:103700000C0F07D124F00040284303D0C4F30A5023
:10371000B84212D1FFF7CAF8C0F80090C4F30A50BB
:10372000B8420AD1A8487844D0E90010C6E9001090
:1037300004F000410843706042E7C6E900543FE7E7
:103740002DE9FF4F1F464FF0000A4FF0FF38454666
:1037500091B0D7E90146CDF83CA0FFF7A3F8C068C7
:103760000168405C1090B96912986D1C8847396AED
:10377000814688470028F6D1B9F1FF3F0AD0002ED4
:1037800024F4D06411DDB9F12B0F08D0B9F12D0F5D
:103790000BD102E0404615B013E744F48064B969E8
:1037A00012986D1C8847761E8146600504A901D5D4
:1037B0002D2000E02B20002E01F1010B0DF130082F
:1037C0008DF810003FDDB9F1690F08D0B9F1490F4C
:1037D00005D0B9F16E0F02D0B9F14E0F1CD13B46A6
:1037E00001A8009580E85002DDE912126FF0020096
:1037F0004DF0BCFBC11CCED10EE0B96912986D1C16
:10380000884781461398761E44F4007405600F982B
:10381000401C002E0F9016DDB9F1300FEDD0B9F13C
:10382000780F02D0B9F1580F0DD10F9801280AD1A5
:103830003B46CDE90054DDE91212001F02964DF01F
:1038400093FBC11CA7D1109989453ED144F0800457
:1038500006E01399681CAAF1010A44F40074086098
:10386000B9696D1C1298761E884730288146F0D0C1
:103870002BE01099894505D1200603D4761E44F02B
:10388000800418E0484617F06BFD08B3761E0DF172
:1038900023018B4544F4007408D2A9F130000BF8E1
:1038A000010B200607D5AAF1010003E0200602D48F
:1038B0000AF101008246A00502D51399681C086030
:1038C000B96912986D1C88478146002ED1DC53E0FF
:1038D000002E51DDB9F1650F02D0B9F1450F4BD182
:1038E000A00549D5B9696D1C1298761E24F4407460
:1038F0008847002E81460CDD2B2804D0B9F12D0F0E
:1039000007D144F48074B96912986D1C8847761EFB
:103910008146E00501D52D2100E02B2108F8011B8F
:10392000CDF8008021E0761E0DF13901884544F480
:1039300000740CD2A9F1300010F0FF0088F80000EC
:1039400002D10099884509D908F1010806E0E0058F
:1039500001D51E4801E042F20F708246B969129803
:103960006D1C8847814613980560002E04DD48468B
:1039700017F0F6FC0028D6D1F96912988847FF2085
:1039800053468BF8000088F8000000200A900B9046
:1039900004AA0CA90AA8FFF7ADFDA00502D46FF098
:1039A0000100F8E614F0240F12D0E0071CD13868AB
:1039B000DDE90A12031D3B600068C0E9001213E054
:1039C0005CE106004EE1060012E00600F1D8FFFFC0
:1039D0000AA9684617F013FCE00705D13868009A79
:1039E000011D3960006802602846D4E610B504461F
:1039F000AFF300802046BDE81040FCF756BC000045
:103A00002DE9FF4F1F464FF03C0987B04FF00042B1
:103A1000DDE9141001F10108DDF858A002EA405078
:103A20000390002005908346054604460490B9693A
:103A3000461E08988847AAF1010A0290BAF1000FC1
:103A40003BDD02982E2815D01021FFF744FD0028F9
:103A50002EDB4FF0010B0599014317D0B9F1000F90
:103A60000BDB4A46C11700F0F5F905430C43A9F1F9
:103A7000040905E0012004900BE008B145F00105C0
:103A800001200590049820B9361D02E0049800B189
:103A9000361FB969089808F101088847BBF1000F83
:103AA000AAF1010A0290C9D00999C1F80080C5E7BE
:103AB0000298702808D0502806D0F96908988847DD
:103AC000BBF1000F14D04FE0002002900120BBF1A9
:103AD000000F049009D0B969089808F101088847D7
:103AE000AAF10109B9F1000F07DCF96908988847C4
:103AF0006FF001000BB0BDE8F08F2B2804D02D280B
:103B00000CD14FF0FF300490B969089808F1010812
:103B10008847A9F10109B9F1000FE6DD411CE4D0A5
:103B20000A21FFF7D8FC0028DFDB029908F1010821
:103B300001EB810100EB41000290B96908988847C8
:103B40000A21FFF7C8FC099AA9F10109B9F1000F90
:103B5000C2F8008001DD0028E7DAF9690898884793
:103B60000499029800FB016655EA040004D004F0B1
:103B70004041090002D006E0039898E0A40044EA1E
:103B80009574AD00B61E04F00041080002D16D1915
:103B90006441761E159810F0240F03D04FF00B09E6
:103BA0005C4803E04FF028096FF07D0082465645DF
:103BB00007DAAAEB06018944B9F1410F01DD4FF0A4
:103BC000410901200021A9F1010200F043F9024658
:103BD00028400B462140084301D0012100E000218C
:103BE000501E029143F1FF3128402140084301D08B
:103BF000012000E000200299834651EA0B014FD0DA
:103C0000002108464FF00000039900F4400039B14C
:103C100000EB80004FF4400100EBD07001EA60003F
:103C20008015012802DD4FF0FF3000E013D0401C6A
:103C300036D0029860B3BBF1000F0CD14A46012088
:103C4000002100F007F928402140084301D001205D
:103C500000E00020E0B101204A46002100F0FAF81F
:103C6000034640190A4661412D1A8C4111D3B9F11E
:103C7000400F09DD159810F0240F02D0AAF1340688
:103C800003E0AAF1170600E0761C00254FF000447F
:103C900006E05B1E42F1FF3220EA030521EA02043E
:103CA000CAF10100B04206DA1B49039808430190AB
:103CB000002000900EE0039AC4F3D321E80A0A43DF
:103CC000164940EA44500A433146CDE900026846AD
:103CD00017F0FCFA159810F0240F0BD01598C007B8
:103CE00015D13868DDE90012031D3B600068C0E9AA
:103CF00000120CE002A8694617F081FA1598C00777
:103D000005D13868029A011D39600068026040469A
:103D1000F0E6000002FCFFFF0000F07F0000F03F33
:103D20002DE9FF4F92461D4685B04FF00041DDE979
:103D3000124BDDE914727F1E01EA4B50414940F0FD
:103D4000FF4940EA0108002122F02000492804919F
:103D500002D04E2828D04CE03BA0012607C88DE8B1
:103D60000700A9690698641C88477F1E014606D48F
:103D70001DF8060018B121F0200181420BD0E9693D
:103D800006988847032E34D0082E32D06FF00100F9
:103D900009B0BDE8F08F761C032E01D0082EE0D1CB
:103DA000601CCAF80000DCE7A9690698641C884713
:103DB0007F1E2AD420F02000412826D1A969069828
:103DC000641C88477F1E20D420F020004E281CD180
:103DD000A9690698641C88477F1E48F4002849F4A6
:103DE0008009CAF8004001D4282806D0E96906985D
:103DF00088475FEACB7012D022E0A9690698641C5C
:103E000088477F1E01D4002803DAE96906988847AD
:103E1000BCE72928F1D1641CCAF80040E9E71BF08F
:103E2000240F07D028680499031D2B600068C0E99F
:103E3000001805E02868021D2A600068C0F800909C
:103E40002046A5E70000F07F494E46494E495459A7
:103E500000000000B2F120030AD5C2F1200301FAEC
:103E600002F120FA03F300FA02F041EA030170477D
:103E700000FA03F14FF0000070475FEA400C08BF02
:103E800091F0000F4FEA8C234FEAC12243EA5151CF
:103E90004FEA1C5018BF00F5F0404FEA300018BF41
:103EA00041F000415FEA6C5C00F02980BCF1FF3F0B
:103EB00008BF40F080407047130C06BF12044FF05B
:103EC000100C4FF0000C130E04BF12020CF1080C82
:103ED000130F04BF12010CF1040C930F04BF9200E6
:103EE0000CF1020CD30F04BF52000CF1010C11466F
:103EF0004FF00002A0F11F00A0EB0C00704711F082
:103F0000004F08BF704731F000413FF4D5AF0B0CB4
:103F100006BF09044FF0100C4FF0000C0B0E04BF4D
:103F200009020CF1080C0B0F04BF09010CF1040C81
:103F30008B0F04BF89000CF1020CCB0F04BF4900AA
:103F40000CF1010CCCF12003A0EB0C0022FA03F3DE
:103F500002FA0CF241EA030100F10100704720F07F
:103F60007F4C80EA030023F07F47ACEB070303F5A7
:103F70007C5300F0004003F1FF032DE980494FEA34
:103F8000154B09B44FEA144325EA0B4E24EA0348C3
:103F90000FF2042606EB132749083E785FEA320247
:103FA00003FB0667C7F5000707FB06F64FEA543721
:103FB0004FEAD64606F1020607FB066CCCF1005C20
:103FC0004FEA1C472CEA074C07FB06F40CFB06F5EE
:103FD00004EB15464FEA961634BF00204FF0004020
:103FE0004FEAD13706FB07FC4FEA1C4C0CFB0BF7E2
:103FF000D21B03FB0CF761EB07010CFB0EF7B0EBD8
:10400000074072EB17420CFB08F734BFA2EB0742E4
:10401000B2EB074261EB17414FEA0C444FEA9107BC
:1040200006FB07FC4FEA1C4C0CFB0BF7B0EBC74040
:1040300072EB573203FB0CF734BFA2EBC742B2EB73
:10404000C74261EB57310CFB0EF7B0EBC70072EBC8
:1040500057720CFB08F734BFA2EBC702B2EBC702E2
:1040600061EB5771039F4FEA816141EA921104EBC2
:10407000CC044FEAD1374FEA826206FB07FC42EAE2
:1040800090124FEA80604FEA1C4C0CFB0BF7D21BDE
:1040900003FB0CF761EB07010CFB0EF7B0EB0740DD
:1040A00072EB17420CFB08F734BFA2EB0742B2EBEE
:1040B000074261EB17414FEA8C554FEA910704EB39
:1040C0009C2406FB07FC4FEA1C4C0CFB0BF7B0EBE7
:1040D000C74072EB573203FB0CF734BFA2EBC74269
:1040E000B2EBC74261EB57310CFB0EF7B0EBC700E8
:1040F00072EB57720CFB08F734BFA2EBC702B2EBAE
:10410000C70261EB577115EB4C254FEA816141EA1B
:1041100092114FEA82624FEAD13742EA901206FBCF
:1041200007FC44F100044FEA80604FEA1C4C0CFB92
:104130000BF7D21B03FB0CF761EB07010CFB0EF72F
:10414000B0EB074072EB17420CFB08F734BFA2EB51
:104150000742B2EB074261EB174115EB1C154FEA22
:10416000813141EA92414FEA823242EA90424FEA7B
:1041700080304FEA0C7644F1000448EA03434EEAEB
:104180000B484FF0000EB2EB080C71EB030724BF95
:10419000624639464EEB0E0E4FF0000B00185241AE
:1041A00049414BEB0B0BB2EB080C71EB03077BF1B6
:1041B000000B24BF624639464EEB0E0E4FF0000B4B
:1041C0000018524149414BEB0B0BB2EB080C71EB61
:1041D00003077BF1000B24BF624639464EEB0E0EFF
:1041E00051EA020718BF46F0010616EB0E7655F1AC
:1041F000000254F1000103D5BDE88901BDE8008843
:10420000BDE88901BDE80048B619524141EB010102
:10421000A3F10103704780807F7E7D7C7B7A797873
:10422000777676757473727171706F6E6E6D6C6C7B
:104230006B6A6A696868676666656464636362611D
:104240006160605F5F5E5E5D5D5C5C5B5B5A5A599E
:10425000595858575756565555555454535352520A
:104260005251515050504F4F4F4E4E4D4D4D4C4C62
:104270004C4B4B4B4A4A4A494949484848474747AB
:1042800047464646454545444444444343434342E8
:10429000424242414141000046EA0646A3F57053BE
:1042A0004FEA164646EA42564FEAD22242EA4152C5
:1042B00010B54FEAD121A3F1010300F02FF820F04F
:1042C000004000F1020C00F0004701EB00501146E5
:1042D000BCF5006F40EA070000D210BDBAF1000F34
:1042E0000AD01CB503B44FF004004FF004014FF0A6
:1042F00000000FBCBDE810404FF00001BBF1010F02
:10430000B9BF04484FF0FF310348002140EA0700DD
:1043100010BD00BFFFFFEF7F0000F07F002B9C4629
:1043200030D477002BD01CB54FEA370703B44FF0D9
:1043300010004FF01001BAF1000F06D0BCF1000FD1
:10434000DCBF40F0080040F008014FF000000FBC57
:10435000BDE810400BF1010BBBF1010F08BF5FEA94
:10436000170722BF12F1010211F101014FF00041C4
:1043700043F1000300F0004043EA00007047F9D326
:104380005708D0E746EA064613F1400F4FEA1646B3
:104390001FDD13F1200FDFBF16430A460021203333
:1043A0005B42BED0C3F1200746EA064602FA07F791
:1043B0004FEA164646EA0706C3F1200722FA03F23F
:1043C00001FA07F721FA03F14FF0000342EA07026E
:1043D000A7E746EA020646EA06464FEA164646EAD6
:1043E0000106BCBF46EA0646360C4FF000034FF00C
:1043F00000024FF0000194E72DE9804C9A46934665
:1044000070B491E8380007C831EA400C48BF34EA7C
:10441000430C03D5FFF7A3FDFFF780FFF0BCBDE819
:10442000008C2DE9804C9A46934670B491E8380090
:1044300007C831EA400C48BF34EA430C03D5FFF704
:104440008EFDFFF729FFF0BCBDE8008C2DE9804C04
:104450009A46934670B491E8380007C810F0804F30
:1044600008BF13F0804F03D100F01AF8FFF756FF92
:10447000F0BCBDE8008C2DE9804C9A46934670B4A0
:1044800091E8380007C810F0804F08BF13F0804F44
:1044900003D100F005F8FFF7FFFEF0BCBDE8008C8B
:1044A00020F07F4780EA030023F07F4C07EB0C03EA
:1044B000A3F57C5300F00040A3F1FE0392F0000F3F
:1044C00000F0B38095F0000F00F077802DE90149EE
:1044D0004FEA11404FEA144621EA004800FB06FC6F
:1044E00024EA064708FB06F607FB08F800FB07F777
:1044F00018EB06484CEB164C4FEA124B18EB0748EA
:104500004FEA15464CEB174022EA0B4E0BFB06FC1C
:1045100025EA06470EFB06F607FB0EFE0BFB07F728
:104520001EEB064E4CEB164C4FF000061EEB074EF2
:104530004CEB174B18EB0B0840F1000018EB0E0B7F
:1045400058EB000840F100008F1A4FF000013CBF0B
:10455000C943661B14BFB5EB040C00213CBFC94323
:10456000F61B4FEA17444EEA8E0E27EA04454FEA3F
:104570001C4704FB07622CEA074C05FB07F70CFB02
:1045800005F604FB0CFC16EB074642EB174216EB54
:104590000C4642EB1C421BEB060658EB0202414163
:1045A00046EA9E0601D5BDE80189B619524141EBA4
:1045B0000101A3F10103BDE801894FEA14454FEA67
:1045C000114724EA054621EA074C05FB07F406FBE0
:1045D00007F70CFB06F105FB0CFC11EB074144EB64
:1045E00017444FEA124711EB0C4144EB1C4422EAFA
:1045F000074C05FB07F206FB07F70CFB06F605FB6D
:104600000CFC16EB074642EB174216EB0C4642EB4E
:104610001C456A1854F1000148BF7047B619524151
:1046200041EB0101A3F10103704795F0000F37D072
:104630004FEA11424FEA144721EA024624EA074CA6
:1046400002FB07F106FB07F70CFB06F402FB0CFC70
:1046500014EB074441EB17414FEA154714EB0C44A8
:1046600041EB1C4125EA074C02FB07F506FB07F767
:104670000CFB06F602FB0CFC16EB074645EB174558
:1046800016EB0C4645EB1C42121951F1000148BFD4
:104690007047B619524141EB0101A3F10103704784
:1046A0004FEA14454FEA114724EA054621EA074C30
:1046B00005FB07F106FB07F70CFB06F24FF00006BF
:1046C00005FB0CFC12EB074241EB174112EB0C42CD
:1046D00051EB1C4148BF7047921841EB0101A3F117
:1046E0000103704708B5614610F016FDBDE80840AB
:1046F0004EF0010E704708B5604610F0F7FCBDE8BB
:1047000008404EF0010E704700BF0000DAF8840048
:10471000A9EB000101F101004FEA1021DAF8802035
:1047200002F8011942F4807202F801098AF8802027
:1047300008F04D0013F0004F18BF40F0800013F058
:10474000FF0F08BF40F0020040F030004FF6FE7C43
:1047500002F0DEFEDAF8A00000F10700CAF8A000BF
:10476000DAF80010B8F5E0685CBF19F8010B51F8F1
:1047700020F0DAF888F019F8010B06EB00604FEA38
:10478000106C1BF80CC000F180704FEA10611BF830
:1047900001104CEA012C0CF460410FF20A0E4FEAB2
:1047A000D12154F801F045EA00654FEA2563DAF8B3
:1047B000A00000F10600CAF8A000DAF80010B8F571
:1047C000C0685CBF19F8010B51F820F0DAF888F0E6
:1047D00019F801CB1BF80C0045EA00654FEA256388
:1047E000DAF8A00000F10300CAF8A000DAF800101F
:1047F000B8F540785CBF19F8010B51F820F0DAF8F1
:1048000088F019F801CB1BF80C00004450EA006353
:1048100048F001080BF80C00DAF8A00000F10500E0
:10482000CAF8A000DAF8001078F5A0685CBF19F8A3
:10483000010B51F820F0DAF888F008F04D0013F081
:10484000004F18BF40F0800013F0FF0F08BF40F08A
:10485000020040F03000DAF8802002F801098AF8FE
:104860008020DAF8A00000F10300CAF8A000DAF80E
:104870000010B8F540785CBF19F8010B51F820F032
:10488000DAF888F019F8010B45EA00654FEA25636C
:10489000DAF8A00000F10200CAF8A000DAF800106F
:1048A000B8F500785CBF19F8010B51F820F0DAF880
:1048B00088F06D194FEA256348F00108DAF8A00086
:1048C00000F10200CAF8A000DAF8001078F50078CC
:1048D0005CBF19F8010B51F820F0DAF888F019F8EC
:1048E00001CB19F8010B4CEA002C0CF460410FF2DB
:1048F0000A0E4FEAD12154F801F045EA00654FEA6B
:104900002563DAF8A00000F10400CAF8A000DAF884
:104910000010B8F580685CBF19F8010B51F820F061
:10492000DAF888F019F801CB19F8010B4CEA002CE1
:104930000CF460410FF2080E4FEAD12154F801F057
:10494000004450EA006348F001080CF460410AF1A9
:1049500024020FF20A0E4FEAD12152F801F0DAF8E0
:10496000A00000F10600CAF8A000DAF8001078F5FF
:10497000C0685CBF19F8010B51F820F0DAF888F034
:1049800013F0004F19F9010B04BF8144A8F580789A
:10499000DAF8A00000F10200CAF8A000DAF800106E
:1049A000B8F500785CBF19F8010B51F820F0DAF87F
:1049B00088F019F8010B10F80BC0584441784CEA04
:1049C000012C0CEB176C0CF460410FF20A0E4FEA4D
:1049D000D12154F801F045EA00654FEA2563DAF881
:1049E000A00000F10500CAF8A000DAF80010B8F540
:1049F000A0685CBF19F8010B51F820F0DAF888F0D4
:104A000019F801CB06EB0C6C4FEA1C601BF8000098
:104A100045EA00654FEA2563DAF8A00000F10400DA
:104A2000CAF8A000DAF80010B8F580685CBF19F881
:104A3000010B51F820F0DAF888F019F801CB06EBF9
:104A40000C6C4FEA1C601BF80000004450EA006345
:104A500048F001084FEA1C610BF80100DAF8A000E9
:104A600000F10600CAF8A000DAF8001078F5C06876
:104A70005CBF19F8010B51F820F0DAF888F028F043
:104A80000108DAF8A00000F10200CAF8A000DAF884
:104A90000010B8F500785CBF19F8010B51F820F050
:104AA000DAF888F019F801CB19F8010B4CEA002C60
:104AB0000CEB176C0CF460410FF2080E4FEAD12199
:104AC00054F801F045EA00654FEA2563DAF8A000E2
:104AD00000F10400CAF8A000DAF80010B8F5806808
:104AE0005CBF19F8010B51F820F0DAF888F019F8DA
:104AF00001CB19F8010B4CEA002C0CEB166C0CF4F2
:104B000060410FF20A0E4FEAD12154F801F045EA54
:104B100000654FEA2563DAF8A00000F10400CAF846
:104B2000A000DAF80010B8F580685CBF19F8010B36
:104B300051F820F0DAF888F019F801CB19F8010BD8
:104B40004CEA002C0CEB166C0CF460410FF2080ED2
:104B50004FEAD12154F801F0004450EA006348F0D4
:104B600001080CF460410AF124020FF20A0E4FEA28
:104B7000D12152F801F0DAF8A00000F10700CAF8DC
:104B8000A000DAF8001078F5E0685CBF19F8010BB6
:104B900051F820F0DAF888F019F8012BDAF88410CF
:104BA000A9EB010099F8001042EA01294FEA10210F
:104BB000DAF8802002F8011942F4807202F8010943
:104BC0008AF8802009F460410AF144024FEAD120BA
:104BD0001058CAF884008144DAF8A00000F10600F9
:104BE000CAF8A000DAF80010B8F5C0685CBF19F880
:104BF000010B51F820F0DAF888F019F8010B06EBF8
:104C000000604FEA106C1BF80CC000F180704FEA96
:104C100010611BF801104CEA012C0CF460410FF2FA
:104C20000A0E4FEAD12154F801F005EA00654FEA77
:104C30002563DAF8A00000F10600CAF8A000DAF84F
:104C40000010B8F5C0685CBF19F8010B51F820F0EE
:104C5000DAF888F019F801CB1BF80C0028F04008AE
:104C600010F0400F18BF48F0400800EA156343EA0F
:104C70000063DAF8A00000F10300CAF8A000DAF837
:104C80000010B8F540785CBF19F8010B51F820F01E
:104C9000DAF888F019F801CB1BF80C0005EA00657A
:104CA0004FEA2563DAF8A00000F10300CAF8A0007B
:104CB000DAF80010B8F540785CBF19F8010B51F82C
:104CC00020F0DAF888F019F801CB1BF80C005FEA45
:104CD000580840EB000050EA006348EB08080BF866
:104CE0000C00DAF8A00000F10500CAF8A000DAF81C
:104CF0000010B8F5A0685CBF19F8010B51F820F05E
:104D0000DAF888F09AF8802002F101028AF880200F
:104D100042F480721BF9020028F04D0800F04D01AA
:104D200048EA010820F0FD0383F00203DAF8A0004E
:104D300000F10400CAF8A000DAF80010B8F58068A5
:104D40005CBF19F8010B51F820F0DAF888F019F877
:104D5000010B05EA00654FEA2563DAF8A00000F1CF
:104D60000200CAF8A000DAF80010B8F500785CBFBD
:104D700019F8010B51F820F0DAF888F05FEA5808CA
:104D800028BF45F400056D194FEA256348EB080874
:104D9000DAF8A00000F10200CAF8A000DAF800106A
:104DA000B8F500785CBF19F8010B51F820F0DAF87B
:104DB00088F019F801CB19F8010B4CEA002C0CF41F
:104DC00060410FF20A0E4FEAD12154F801F028F0A9
:104DD000400810F0400F18BF48F0400800EA156383
:104DE00043EA0063DAF8A00000F10400CAF8A0006A
:104DF000DAF80010B8F580685CBF19F8010B51F8BB
:104E000020F0DAF888F019F801CB19F8010B4CEA18
:104E1000002C0CF460410FF20A0E4FEAD12154F835
:104E200001F005EA00654FEA2563DAF8A00000F119
:104E30000400CAF8A000DAF80010B8F580685CBF7A
:104E400019F8010B51F820F0DAF888F019F801CBC5
:104E500019F8010B4CEA002C0CF460410FF2080E1B
:104E60004FEAD12154F801F05FEA580840EB000006
:104E700050EA006348EB08080CF460410AF1240290
:104E80000FF2080E4FEAD12152F801F0DAF8A00033
:104E900000F10600CAF8A000DAF80010B8F5C06802
:104EA0005CBF19F8010B51F820F0DAF888F013F024
:104EB000004F19F9010B1CBF8144A8F58078DAF87E
:104EC000A00000F10200CAF8A000DAF80010B8F55E
:104ED00000785CBF19F8010B51F820F0DAF888F07F
:104EE00019F8010B10F80BC0584441784CEA012C1A
:104EF0000CEB176C0CF460410FF2080E4FEAD12155
:104F000054F801F005EA00654FEA2563DAF8A000DD
:104F100000F10500CAF8A000DAF80010B8F5A068A2
:104F20005CBF19F8010B51F820F0DAF888F019F895
:104F300001CB06EB0C6C4FEA1C601BF8000005EA85
:104F400000654FEA2563DAF8A00000F10400CAF812
:104F5000A000DAF80010B8F580685CBF19F8010B02
:104F600051F820F0DAF888F019F801CB06EB0C6C58
:104F70004FEA1C601BF800005FEA580840EB000095
:104F800050EA006348EB08084FEA1C610BF8010087
:104F9000DAF8A00000F10600CAF8A000DAF8001064
:104FA000B8F5C0685CBF19F8010B51F820F0DAF8C9
:104FB00088F048F00108DAF8A00000F10200CAF811
:104FC000A000DAF80010B8F500785CBF19F8010B02
:104FD00051F820F0DAF888F019F801CB19F8010B34
:104FE0004CEA002C0CEB176C0CF460410FF2080E2D
:104FF0004FEAD12154F801F005EA00654FEA256334
:10500000DAF8A00000F10400CAF8A000DAF80010F5
:10501000B8F580685CBF19F8010B51F820F0DAF898
:1050200088F019F801CB19F8010B4CEA002C0CEBB5
:10503000166C0CF460410FF20A0E4FEAD12154F8BD
:1050400001F005EA00654FEA2563DAF8A00000F1F7
:105050000400CAF8A000DAF80010B8F580685CBF58
:1050600019F8010B51F820F0DAF888F019F801CBA3
:1050700019F8010B4CEA002C0CEB166C0CF4604197
:105080000FF2080E4FEAD12154F801F05FEA5808F8
:1050900040EB000050EA006348EB08080CF4604164
:1050A0000AF124020FF2080E4FEAD12152F801F062
:1050B000DAF8A00000F10700CAF8A000DAF8001042
:1050C000B8F5E0685CBF19F8010B51F820F0DAF888
:1050D00088F09AF8802002F101028AF8802042F4D8
:1050E00080721BF9020028F04D0800F04D0148EADB
:1050F000010820F0FD0383F002039AF8802002F1FA
:1051000002028AF88020DAF8802012F8010942F4BD
:10511000807292F8009049EA002909F460410AF18E
:1051200044024FEAD1201058CAF884008144DAF8CA
:10513000A00000F10600CAF8A000DAF80010B8F5E7
:10514000C0685CBF19F8010B51F820F0DAF888F05C
:1051500019F8010B06EB00604FEA106C1BF80CC04D
:1051600000F180704FEA10611BF801104CEA012C2D
:105170000CF460410FF2080E4FEAD12154F801F00F
:1051800085EA00654FEA2563DAF8A00000F1060021
:10519000CAF8A000DAF80010B8F5C0685CBF19F8CA
:1051A000010B51F820F0DAF888F019F801CB1BF860
:1051B0000C0085EA00654FEA2563DAF8A00000F1EB
:1051C0000300CAF8A000DAF80010B8F540785CBF18
:1051D00019F8010B51F820F0DAF888F019F801CB32
:1051E0001BF80C305B0848F001080BF80C30DAF8BB
:1051F000A00000F10500CAF8A000DAF8001078F568
:10520000A0685CBF19F8010B51F820F0DAF888F0BB
:105210004FEA1560DAF8802002F801098AF8802048
:10522000DAF8A00000F10300CAF8A000DAF80010D4
:10523000B8F540785CBF19F8010B51F820F0DAF8A6
:1052400088F019F8010B85EA00654FEA2563DAF862
:10525000A00000F10200CAF8A000DAF80010B8F5CA
:1052600000785CBF19F8010B51F820F0DAF888F0EB
:105270006B0E4FEA036548F00108DAF8A00000F170
:105280000200CAF8A000DAF8001078F500785CBFD8
:1052900019F8010B51F820F0DAF888F019F8010B31
:1052A00099F8001040EA012909F460410AF144022A
:1052B0004FEAD1201058CAF884008144DAF8A000DF
:1052C00000F10300CAF8A000DAF80010B8F5407841
:1052D0005CBF19F8010B51F820F0DAF888F019F8E2
:1052E00001CB19F8010B4CEA002C0CF460410FF2D1
:1052F0000A0E4FEAD12154F801F085EA00654FEA21
:105300002563DAF8A00000F10400CAF8A000DAF87A
:105310000010B8F580685CBF19F8010B51F820F057
:10532000DAF888F019F801CB19F8010B4CEA002CD7
:105330000CF460410FF2080E4FEAD12154F801F04D
:10534000400848F0010803460CF460410AF12402C9
:105350000FF2080E4FEAD12152F801F0DAF8A0005E
:1053600000F10600CAF8A000DAF8001078F5C0686D
:105370005CBF19F8010B51F820F0DAF888F018F04A
:10538000400F19F9010B04BF8144A8F58078DAF8C1
:10539000A00000F10200CAF8A000DAF80010B8F589
:1053A00000785CBF19F8010B51F820F0DAF888F0AA
:1053B00019F8010B10F80BC0584441784CEA012C45
:1053C0000CEB176C0CF460410FF2080E4FEAD12180
:1053D00054F801F085EA00654FEA2563DAF8A00089
:1053E00000F10500CAF8A000DAF80010B8F5A068CE
:1053F0005CBF19F8010B51F820F0DAF888F019F8C1
:1054000001CB06EB0C6C4FEA1C601BF8000085EA30
:1054100000654FEA2563DAF8A00000F10400CAF83D
:10542000A000DAF80010B8F580685CBF19F8010B2D
:1054300051F820F0DAF888F019F801CB06EB0C6C83
:105440004FEA1C631BF803305B0848F001084FEA81
:105450001C610BF80130DAF8A00000F10600CAF870
:10546000A000DAF8001078F5C0685CBF19F8010BED
:1054700051F820F0DAF888F028F00408DAF8A000F3
:1054800000F10200CAF8A000DAF80010B8F50078C0
:105490005CBF19F8010B51F820F0DAF888F019F820
:1054A00001CB19F8010B4CEA002C0CEB176C0CF437
:1054B00060410FF20A0E4FEAD12154F801F085EA5B
:1054C00000654FEA2563DAF8A00000F10400CAF88D
:1054D000A000DAF80010B8F580685CBF19F8010B7D
:1054E00051F820F0DAF888F019F801CB19F8010B1F
:1054F0004CEA002C0CEB166C0CF460410FF2080E19
:105500004FEAD12154F801F085EA00654FEA25639E
:10551000DAF8A00000F10400CAF8A000DAF80010E0
:10552000B8F580685CBF19F8010B51F820F0DAF883
:1055300088F019F801CB19F8010B4CEA002C0CEBA0
:10554000166C0CF460410FF20A0E4FEAD12154F8A8
:1055500001F0400848F0010803460CF460410AF1EC
:1055600024020FF20A0E4FEAD12152F801F0DAF8C4
:10557000A00000F10700CAF8A000DAF8001078F5E2
:10558000E0685CBF19F8010B51F820F0DAF888F0F8
:105590009AF8802002F102028AF88020DAF880204E
:1055A00012F8010942F4807292F8009049EA002949
:1055B00009F1010909F460410AF144024FEAD120DE
:1055C0001058CAF884008144DAF8A00000F10600FF
:1055D000CAF8A000DAF80010B8F5C0685CBF19F886
:1055E000010B51F820F0DAF888F019F8010B06EBFE
:1055F00000604FEA106C1BF80CC000F180704FEA9D
:1056000010611BF801104CEA012C0CF460410FF200
:105610000A0E4FEAD12154F801F05FEA580128BF81
:10562000A0F5807055EB30254FEA256348F041081E
:1056300078BF28F04008DAF8A00000F10600CAF8A8
:10564000A000DAF8001078F5C0685CBF19F8010B0B
:1056500051F820F0DAF888F019F801CB1BF80C00AB
:105660005FEA580128BFA0F5807055EB30254FEA5E
:10567000256348F0410878BF28F04008DAF8A00018
:1056800000F10300CAF8A000DAF8001078F54078BD
:105690005CBF19F8010B51F820F0DAF888F019F81E
:1056A00001CB1BF80C005FEA580828BF40F480705B
:1056B000400840EA006348EB08080BF80C00DAF8F1
:1056C000A00000F10500CAF8A000DAF80010B8F553
:1056D000A0685CBF19F8010B51F820F0DAF888F0E7
:1056E0009AF8802002F101028AF8802042F4807248
:1056F0001BF902304FEA0365DAF8A00000F104005C
:10570000CAF8A000DAF80010B8F580685CBF19F894
:10571000010B51F820F0DAF888F019F8010B5FEA74
:10572000580128BFA0F5807055EB30254FEA25635E
:1057300048F0410878BF28F04008DAF8A00000F1EE
:105740000200CAF8A000DAF8001078F500785CBF13
:1057500019F8010B51F820F0DAF888F05FEA5808E0
:105760004FEA35052B1605F07F4548EB0808DAF8B7
:10577000A00000F10200CAF8A000DAF80010B8F5A5
:1057800000785CBF19F8010B51F820F0DAF888F0C6
:1057900019F801CB19F8010B4CEA002C0AF144016D
:1057A0000CF460424FEAD220095811F80C90614481
:1057B000487849EA002909F460410AF144024FEAB5
:1057C000D1201058CAF884008144DAF8A00000F112
:1057D0000500CAF8A000DAF80010B8F5A0685CBFB0
:1057E00019F8010B51F820F0DAF888F019F801CB1C
:1057F00019F8010B4CEA002C0CF460410FF2080E72
:105800004FEAD12154F801F05FEA580128BFA0F512
:10581000807055EB30254FEA256348F0410878BF8A
:1058200028F04008DAF8A00000F10400CAF8A0004F
:10583000DAF8001078F580685CBF19F8010B51F8B0
:1058400020F0DAF888F019F801CB19F8010B4CEACE
:10585000002C0CF460410FF20A0E4FEAD12154F8EB
:1058600001F05FEA580828BF40F48070400840EA21
:10587000006348EB08080CF460410AF124020FF2BF
:105880000A0E4FEAD12152F801F0DAF8A00000F137
:105890000600CAF8A000DAF80010B8F5C0685CBFCE
:1058A00019F8010B51F820F0DAF888F018F0400FE1
:1058B00019F9010B1CBF8144A8F58078DAF8A00023
:1058C00000F10200CAF8A000DAF80010B8F500787C
:1058D0005CBF19F8010B51F820F0DAF888F019F8DC
:1058E000010B10F80BC0584441784CEA012C0CEB2A
:1058F000176C0CF460410FF20A0E4FEAD12154F8F4
:1059000001F05FEA580128BFA0F5807055EB302503
:105910004FEA256348F0410878BF28F04008DAF8DC
:10592000A00000F10500CAF8A000DAF8001078F530
:10593000A0685CBF19F8010B51F820F0DAF888F084
:1059400019F801CB06EB0C6C4FEA1C601BF8000049
:105950005FEA580128BFA0F5807055EB30254FEA6B
:10596000256348F0410878BF28F04008DAF8A00025
:1059700000F10400CAF8A000DAF8001078F5806899
:105980005CBF19F8010B51F820F0DAF888F019F82B
:1059900001CB06EB0C6C4FEA1C601BF800005FEAC1
:1059A000580828BF40F48070400840EA006348EB84
:1059B00008084FEA1C610BF80100DAF8A00000F1BA
:1059C0000600CAF8A000DAF80010B8F5C0685CBF9D
:1059D00019F8010B51F820F0DAF888F048F00408C3
:1059E000DAF8A00000F10200CAF8A000DAF800100E
:1059F000B8F500785CBF19F8010B51F820F0DAF81F
:105A000088F019F801CB19F8010B4CEA002C0CEBCB
:105A1000176C0CF460410FF20A0E4FEAD12154F8D2
:105A200001F05FEA580128BFA0F5807055EB3025E2
:105A30004FEA256348F0410878BF28F04008DAF8BB
:105A4000A00000F10400CAF8A000DAF8001078F510
:105A500080685CBF19F8010B51F820F0DAF888F083
:105A600019F801CB19F8010B4CEA002C0CEB166C61
:105A70000CF460410FF2080E4FEAD12154F801F006
:105A80005FEA580128BFA0F5807055EB30254FEA3A
:105A9000256348F0410878BF28F04008DAF8A000F4
:105AA00000F10400CAF8A000DAF8001078F5806868
:105AB0005CBF19F8010B51F820F0DAF888F019F8FA
:105AC00001CB19F8010B4CEA002C0CEB166C0CF412
:105AD00060410FF20A0E4FEAD12154F801F05FEA5B
